{
    "contractName": "WavePortal",
    "abi": [
        {
            "inputs": [],
            "stateMutability": "nonpayable",
            "type": "constructor"
        },
        {
            "inputs": [],
            "name": "getTotalWaves",
            "outputs": [
                {
                    "internalType": "uint256",
                    "name": "",
                    "type": "uint256"
                }
            ],
            "stateMutability": "view",
            "type": "function"
        },
        {
            "inputs": [],
            "name": "wave",
            "outputs": [],
            "stateMutability": "nonpayable",
            "type": "function"
        }
    ],
    "bytecode": "608060405234801561001057600080fd5b5061003c6040518060600160405280602581526020016104006025913961004160201b6100f01760201c565b610101565b6100888160405160240161005591906100ac565b60408051601f198184030181529190526020810180516001600160e01b0390811663104c13eb60e21b1790915261008b16565b50565b80516a636f6e736f6c652e6c6f67602083016000808483855afa5050505050565b600060208083528351808285015260005b818110156100d9578581018301518582016040015282016100bd565b818111156100eb576000604083870101525b50601f01601f1916929092016040019392505050565b6102f0806101106000396000f3fe608060405234801561001057600080fd5b50600436106100365760003560e01c80636fe15b441461003b5780639a2cdc0814610045575b600080fd5b61004361005f565b005b61004d6100a6565b60405190815260200160405180910390f35b600160008082825461007191906101e1565b909155505060408051808201909152600d81526c2573206861732077617665642160981b60208201526100a49033610136565b565b60006100e96040518060400160405280601781526020017f5765206861766520256420746f74616c2077617665732100000000000000000081525060005461017f565b5060005490565b610133816040516024016101049190610254565b60408051601f198184030181529190526020810180516001600160e01b031663104c13eb60e21b1790526101c0565b50565b61017b828260405160240161014c92919061026e565b60408051601f198184030181529190526020810180516001600160e01b031663319af33360e01b1790526101c0565b5050565b61017b8282604051602401610195929190610298565b60408051601f198184030181529190526020810180516001600160e01b03166309710a9d60e41b1790525b80516a636f6e736f6c652e6c6f67602083016000808483855afa5050505050565b6000821982111561020257634e487b7160e01b600052601160045260246000fd5b500190565b6000815180845260005b8181101561022d57602081850181015186830182015201610211565b8181111561023f576000602083870101525b50601f01601f19169290920160200192915050565b6020815260006102676020830184610207565b9392505050565b6040815260006102816040830185610207565b905060018060a01b03831660208301529392505050565b6040815260006102ab6040830185610207565b9050826020830152939250505056fea26469706673582212201baa6719a4dcdf4df16eef09051b0cf3bbbe257528cda5aa4029654c0484671b64736f6c634300080a0033596f20796f2c204920616d206120636f6e747261637420616e64204920616d20736d617274",
    "sourcePath": "d:/Projects/my-wave-portal/contracts/WavePortal.sol",
    "compiler": {
        "name": "solc",
        "version": "0.8.10+commit.fc410830"
    },
    "functionHashes": {
        "getTotalWaves()": "9a2cdc08",
        "wave()": "6fe15b44"
    },
    "gasEstimates": {
        "creation": {
            "codeDepositCost": "150400",
            "executionCost": "infinite",
            "totalCost": "infinite"
        },
        "external": {
            "getTotalWaves()": "infinite",
            "wave()": "infinite"
        }
    }
}